:020000040000FA
:060000000A128A11D92F3B
:100B6C0001340034023400340434003408340034CA
:100B7C0010340034203400344034003480340034D9
:100B8C007E088A007F0882000A128A11C6250A1282
:100B9C008A118000840A04087D0603190034FF0AB8
:100BAC000319FE0ACA2D83160317890188018316BF
:100BBC000313860187018801051485140515851119
:100BCC000512851209108910831203138501860101
:100BDC0087018801890108007E34003430340034E8
:100BEC006D34003479340034333400345B340034E5
:100BFC005F340034703400347F3400347B34003480
:100C0C000134003402340034043400340834003429
:100C1C001034003420340034403400348034003438
:100C2C000A128A11D9250A128A1140308400A03088
:100C3C00F0000408F1001430F200700884008313F3
:100C4C000008F300F00A7108840073088000F10AB0
:100C5C00F20B232E203084005430F0000408F100F5
:100C6C001030F2007008840083130008F300F00ABF
:100C7C007108840073088000F10AF20B382E3030B2
:100C8C008400B430F0000408F1001030F200700859
:100C9C00840083130008F300F00A710884007308C1
:100CAC008000F10AF20B4D2E83120313051C5F2EEC
:100CBC00602EB52EEA01EA0A5330F000F00B642ED8
:100CCC008312031305186B2E6C2EB42E4608860067
:100CDC0085150630F2001330F100AD30F000F00B4A
:100CEC00752EF10B752EF20B752E7C2E83120313C1
:100CFC004408860005160630F2001330F100AD30C2
:100D0C00F000F00B872EF10B872EF20B872E8E2E18
:100D1C00831203134208860085160330F2008A30D2
:100D2C00F1005530F000F00B992EF10B992EF20BCF
:100D3C00992EA02E0330F2008A30F1005530F000CD
:100D4C00F00BA62EF10BA62EF20BA62EAD2E8312B7
:100D5C00031385110512851240088600EA01851CD3
:100D6C00B82EB92E452F861CBC2EBD2E452FE90161
:100D7C00E90A5330F000F00BC12E831203138518CF
:100D8C00C82EC92E442F6608F0007007203E840040
:100D9C008313000887000130E6070318E70A0030C8
:100DAC00E7078230F100DD30F000F00BDB2EF10BA9
:100DBC00DB2EE02E83120313871FE52EE62E442F25
:100DCC00870188010914420886000630F2001330AE
:100DDC00F100AD30F000F00BF12EF10BF12EF20B17
:100DEC00F12EF82E831203130910400886000630EA
:100DFC00F2001330F100AD30F000F00B032FF10BCB
:100E0C00032FF20B032F0A2F8312031342088600C1
:100E1C0009140630F2001330F100AD30F000F00B85
:100E2C00152FF10B152FF20B152F1C2F83120313FB
:100E3C004008860009100630F2001330F100AD3086
:100E4C00F000F00B272FF10B272FF20B272F2E2F53
:100E5C00831203134208860009141A30F2005E3024
:100E6C00F1006E30F000F00B392FF10B392FF20B33
:100E7C00392F00008312031386018901E901051D36
:100E8C00482F492F5A2E861C4C2F4D2F5A2EE801D5
:100E9C00E80A5330F000F00B512F8312031305199D
:100EAC00582F592FD42F6408F0007007303E84005F
:100EBC008313000888000130E4070318E50A0030AA
:100ECC00E5078230F100DD30F000F00B6B2FF10BF9
:100EDC006B2F702F83120313881F752F762FD42F2F
:100EEC00870188018914440886000630F20013300B
:100EFC00F100AD30F000F00B812FF10B812FF20BD4
:100F0C00812F882F83120313891040088600063026
:100F1C00F2001330F100AD30F000F00B932FF10B19
:100F2C00932FF20B932F9A2F8312031344088600EE
:100F3C0089140630F2001330F100AD30F000F00BE4
:100F4C00A52FF10BA52FF20BA52FAC2F831203139A
:100F5C004008860089100630F2001330F100AD30E5
:100F6C00F000F00BB72FF10BB72FF20BB72FBE2FF2
:100F7C00831203134408860089141A30F2005E3081
:100F8C00F1006E30F000F00BC92FF10BC92FF20BF2
:100F9C00C92F00008312031386018901E8015A2E20
:100FAC000A128A1100288313C430FD000530FE009C
:100FBC00F230FF00A03084000A128A11CA250A12EE
:100FCC008A116430FD000530FE00B630FF0054304D
:100FDC0084000A128A11CA250A128A11E401E50159
:100FEC00E601E701E801E901EA01F40183010A12D3
:040FFC008A11162E12
:04400E00F5E0FFFFDB
:00000001FF
