:020000040000FA
:060000000A128A11FC2F18
:100F6000831603138511831603178801890108006E
:100F70000A128A11B0270A128A1183120313851DDF
:100F8000C22FC32FC52F8511C62F8515F430F00051
:100F90000130F1000A128A11D3270A128A11BD2FDB
:100FA0000A128A110028F201F301F12FF401F50170
:100FB0000130F4070318F50A0030F5077508803A88
:100FC000FF0080307F02031DE72FFF307402031CF7
:100FD000EA2FEB2FD82F0130F2070318F30A003065
:100FE000F30771087302031DF72F70087202031CC8
:100FF000FA2FFB2FD62F080083010A128A11B82F6F
:04400E00F1E0FFFFDF
:00000001FF
