:020000040000FA
:060000000A128A110E280D
:10000800FE00030EF3000408F4000A08F5000A12C3
:100018008A112B280A128A11112883134030FD00F7
:100028000030FE008B30FF00203084000A128A1155
:1000380008210A128A110A128A1117210A128A1132
:10004800F900F701F80183010A128A11AB2883121B
:1000580003130C1F3028312847281E08F1000430EC
:100068000310F10CFF3E031D34287108F2007208DA
:10007800F7001E087905F1007108F8000A128A11C4
:10008800CA200A128A110B1C4A284B28602883129E
:100098000313861A50285128572808088800013069
:1000A800F10071088807861B5A285B285F28080812
:1000B8008800013088020B1075088A0074088400D3
:1000C800730E8300FE0E7E0E0900831203131F14A5
:1000D8008316031789010814831603130514831262
:1000E80003131F111F111F111F11831603139F13D1
:1000F8001F129F12831203139F171F138B170B17BF
:10010800831603130C17831203130C1308007E3491
:100118000034303400346D340034793400343334EE
:1001280000345B3400345F340034703400347F347E
:1001380000347B340034773400341F3400344E34B8
:1001480000343D3400344F340034C73400340A12CC
:100158008A11E8200A128A110A128A1169200A12E1
:100168008A110630F600F60BB72800008312031335
:100178009F141E0808020318C228C328C52809149A
:10018800B5280910B5280A128A110E2883120313FC
:1001980009117808F0007007203E840083130008D6
:1001A800870089142130F000F00BD828831203133C
:1001B80089107708F0007007203E84008313000838
:1001C800870009150C13080083160313870188019B
:1001D8000910891009118316031789018B170B1051
:1001E800831603138617861681138B159617961692
:1001F800831203138501860187018801890108009C
:100208007E088A007F0882000A128A1104210A12D5
:100218008A118000840A04087D0603190034FF0A45
:080228000319FE0A08290F3436
:04400E00F4E0FFFFDC
:00000001FF
