:020000040000FA
:060000000A128A11D92F3B
:100B780001340034023400340434003408340034BE
:100B880010340034203400344034003480340034CD
:100B98007E088A007F0882000A128A11CC250A1270
:100BA8008A118000840A04087D0603190034FF0AAC
:100BB8000319FE0AD02D83160317890188018316AD
:100BC800031386018701880105148514051585110D
:100BD80005128512091089108312031385018601F5
:100BE80087018801890108007E34003430340034DC
:100BF8006D34003479340034333400345B340034D9
:100C08005F340034703400347F3400347B34003473
:100C1800013400340234003404340034083400341D
:100C2800103400342034003440340034803400342C
:100C38000A128A11DF250A128A1140308400A03076
:100C4800F0000408F1001430F200700884008313E7
:100C58000008F300F00A7108840073088000F10AA4
:100C6800F20B292E203084005430F0000408F100E3
:100C78001030F2007008840083130008F300F00AB3
:100C88007108840073088000F10AF20B3E2E3030A0
:100C98008400B430F0000408F1001030F20070084D
:100CA800840083130008F300F00A710884007308B5
:100CB8008000F10AF20B532E83120313051C652ED4
:100CC800662ED02FEB01EB0A5330F000F00B6A2EA2
:100CD800831203130518712E722EBC2E4608860047
:100CE80085150630F2001330F100AD30F000F00B3E
:100CF8007B2EF10B7B2EF20B7B2E822E831203139D
:100D08004408860005160630F2001330F100AD30B5
:100D1800F000F00B8D2EF10B8D2EF20B8D2E942EF4
:100D2800831203134208860085160330F2008A30C6
:100D3800F1005530F000F00B9F2EF10B9F2EF20BB7
:100D48009F2EA62E0330F2008A30F1005530F000B5
:100D5800F00BAC2EF10BAC2EF20BAC2EB32E831293
:100D6800031385110512851240088600E801E80A78
:100D7800EB01D02F851CC12EC22EDB2E6A08031D65
:100D8800C62EC72EDB2EEA01EA0A6608F0007007B5
:100D9800203E84008313000887000130E60703180B
:100DA800E70A0030E7075330F000F00BD92E831222
:100DB8000313051DE02EE12EFA2E6908031DE52E0A
:100DC800E62EFA2EE901E90A6408F0007007303EC1
:100DD80084008313000888000130E4070318E50A3B
:100DE8000030E5075330F000F00BF82E83120313A0
:100DF800871FFF2E002F612F8701880109144208E1
:100E080086000630F2001330F100AD30F000F00B30
:100E18000B2FF10B0B2FF20B0B2F122F8312031337
:100E28000910400886000630F2001330F100AD309A
:100E3800F000F00B1D2FF10B1D2FF20B1D2F242F8F
:100E4800831203134208860009140630F200133097
:100E5800F100AD30F000F00B2F2FF10B2F2FF20B1C
:100E68002F2F362F831203134008860009100630EF
:100E7800F2001330F100AD30F000F00B412FF10B10
:100E8800412FF20B412F482F83120313420886008B
:100E980009141A30F2005E30F1006E30F000F00BE9
:100EA800532FF10B532FF20B532F00008312031310
:100EB8008601870188018901E801881F642F652F51
:100EC800C62F870188018914440886000630F2007D
:100ED8001330F100AD30F000F00B702FF10B702FD4
:100EE800F20B702F772F83120313891040088600A6
:100EF8000630F2001330F100AD30F000F00B822F15
:100F0800F10B822FF20B822F892F831203134408CF
:100F1800860089140630F2001330F100AD30F0007D
:100F2800F00B942FF10B942FF20B942F9B2F83121D
:100F380003134008860089100630F2001330F100D0
:100F4800AD30F000F00BA62FF10BA62FF20BA62F59
:100F5800AD2F831203134408860089141A30F20057
:100F68005E30F1006E30F000F00BB82FF10BB82FA7
:100F7800F20BB82F00008312031386018701880142
:100F88008901E8018518C92FCA2FCB2FEA01051955
:100F9800CE2FCF2FD02FE90168030319D42FD52FD7
:100FA800BE2E602E0A128A1100288313C430FD0059
:100FB8000530FE00F830FF00A03084000A128A11C4
:100FC800D0250A128A116430FD000530FE00BC30BD
:100FD800FF00543084000A128A11D0250A128A119F
:100FE800E401E501E601E701E801E901EA01EB01B5
:080FF80083010A128A111C2E6C
:04400E00F4E0FFFFDC
:00000001FF
